{
  "_format": "hh-sol-artifact-1",
  "contractName": "MainnetNFTA",
  "sourceName": "contracts/MainnetNFTA.sol",
  "abi": [
    {
      "inputs": [
        {
          "internalType": "string",
          "name": "name",
          "type": "string"
        },
        {
          "internalType": "string",
          "name": "symbol",
          "type": "string"
        },
        {
          "internalType": "uint256",
          "name": "quantity",
          "type": "uint256"
        }
      ],
      "stateMutability": "nonpayable",
      "type": "constructor"
    },
    {
      "inputs": [],
      "name": "AccessControlBadConfirmation",
      "type": "error"
    },
    {
      "inputs": [
        {
          "internalType": "address",
          "name": "account",
          "type": "address"
        },
        {
          "internalType": "bytes32",
          "name": "neededRole",
          "type": "bytes32"
        }
      ],
      "name": "AccessControlUnauthorizedAccount",
      "type": "error"
    },
    {
      "inputs": [],
      "name": "ApprovalCallerNotOwnerNorApproved",
      "type": "error"
    },
    {
      "inputs": [],
      "name": "ApprovalQueryForNonexistentToken",
      "type": "error"
    },
    {
      "inputs": [],
      "name": "BalanceQueryForZeroAddress",
      "type": "error"
    },
    {
      "inputs": [],
      "name": "MintERC2309QuantityExceedsLimit",
      "type": "error"
    },
    {
      "inputs": [],
      "name": "MintToZeroAddress",
      "type": "error"
    },
    {
      "inputs": [],
      "name": "MintZeroQuantity",
      "type": "error"
    },
    {
      "inputs": [],
      "name": "NotCompatibleWithSpotMints",
      "type": "error"
    },
    {
      "inputs": [],
      "name": "OwnerQueryForNonexistentToken",
      "type": "error"
    },
    {
      "inputs": [],
      "name": "OwnershipNotInitializedForExtraData",
      "type": "error"
    },
    {
      "inputs": [],
      "name": "SequentialMintExceedsLimit",
      "type": "error"
    },
    {
      "inputs": [],
      "name": "SequentialUpToTooSmall",
      "type": "error"
    },
    {
      "inputs": [],
      "name": "SpotMintTokenIdTooSmall",
      "type": "error"
    },
    {
      "inputs": [],
      "name": "TokenAlreadyExists",
      "type": "error"
    },
    {
      "inputs": [],
      "name": "TransferCallerNotOwnerNorApproved",
      "type": "error"
    },
    {
      "inputs": [],
      "name": "TransferFromIncorrectOwner",
      "type": "error"
    },
    {
      "inputs": [],
      "name": "TransferToNonERC721ReceiverImplementer",
      "type": "error"
    },
    {
      "inputs": [],
      "name": "TransferToZeroAddress",
      "type": "error"
    },
    {
      "inputs": [],
      "name": "URIQueryForNonexistentToken",
      "type": "error"
    },
    {
      "anonymous": false,
      "inputs": [
        {
          "indexed": true,
          "internalType": "address",
          "name": "owner",
          "type": "address"
        },
        {
          "indexed": true,
          "internalType": "address",
          "name": "approved",
          "type": "address"
        },
        {
          "indexed": true,
          "internalType": "uint256",
          "name": "tokenId",
          "type": "uint256"
        }
      ],
      "name": "Approval",
      "type": "event"
    },
    {
      "anonymous": false,
      "inputs": [
        {
          "indexed": true,
          "internalType": "address",
          "name": "owner",
          "type": "address"
        },
        {
          "indexed": true,
          "internalType": "address",
          "name": "operator",
          "type": "address"
        },
        {
          "indexed": false,
          "internalType": "bool",
          "name": "approved",
          "type": "bool"
        }
      ],
      "name": "ApprovalForAll",
      "type": "event"
    },
    {
      "anonymous": false,
      "inputs": [
        {
          "indexed": true,
          "internalType": "uint256",
          "name": "fromTokenId",
          "type": "uint256"
        },
        {
          "indexed": false,
          "internalType": "uint256",
          "name": "toTokenId",
          "type": "uint256"
        },
        {
          "indexed": true,
          "internalType": "address",
          "name": "from",
          "type": "address"
        },
        {
          "indexed": true,
          "internalType": "address",
          "name": "to",
          "type": "address"
        }
      ],
      "name": "ConsecutiveTransfer",
      "type": "event"
    },
    {
      "anonymous": false,
      "inputs": [
        {
          "indexed": true,
          "internalType": "bytes32",
          "name": "role",
          "type": "bytes32"
        },
        {
          "indexed": true,
          "internalType": "bytes32",
          "name": "previousAdminRole",
          "type": "bytes32"
        },
        {
          "indexed": true,
          "internalType": "bytes32",
          "name": "newAdminRole",
          "type": "bytes32"
        }
      ],
      "name": "RoleAdminChanged",
      "type": "event"
    },
    {
      "anonymous": false,
      "inputs": [
        {
          "indexed": true,
          "internalType": "bytes32",
          "name": "role",
          "type": "bytes32"
        },
        {
          "indexed": true,
          "internalType": "address",
          "name": "account",
          "type": "address"
        },
        {
          "indexed": true,
          "internalType": "address",
          "name": "sender",
          "type": "address"
        }
      ],
      "name": "RoleGranted",
      "type": "event"
    },
    {
      "anonymous": false,
      "inputs": [
        {
          "indexed": true,
          "internalType": "bytes32",
          "name": "role",
          "type": "bytes32"
        },
        {
          "indexed": true,
          "internalType": "address",
          "name": "account",
          "type": "address"
        },
        {
          "indexed": true,
          "internalType": "address",
          "name": "sender",
          "type": "address"
        }
      ],
      "name": "RoleRevoked",
      "type": "event"
    },
    {
      "anonymous": false,
      "inputs": [
        {
          "indexed": true,
          "internalType": "address",
          "name": "from",
          "type": "address"
        },
        {
          "indexed": true,
          "internalType": "address",
          "name": "to",
          "type": "address"
        },
        {
          "indexed": true,
          "internalType": "uint256",
          "name": "tokenId",
          "type": "uint256"
        }
      ],
      "name": "Transfer",
      "type": "event"
    },
    {
      "inputs": [],
      "name": "BLACKLIST_ROLE",
      "outputs": [
        {
          "internalType": "bytes32",
          "name": "",
          "type": "bytes32"
        }
      ],
      "stateMutability": "view",
      "type": "function"
    },
    {
      "inputs": [],
      "name": "CONTRACT_ROLE",
      "outputs": [
        {
          "internalType": "bytes32",
          "name": "",
          "type": "bytes32"
        }
      ],
      "stateMutability": "view",
      "type": "function"
    },
    {
      "inputs": [],
      "name": "CREATOR_ROLE",
      "outputs": [
        {
          "internalType": "bytes32",
          "name": "",
          "type": "bytes32"
        }
      ],
      "stateMutability": "view",
      "type": "function"
    },
    {
      "inputs": [],
      "name": "DEFAULT_ADMIN_ROLE",
      "outputs": [
        {
          "internalType": "bytes32",
          "name": "",
          "type": "bytes32"
        }
      ],
      "stateMutability": "view",
      "type": "function"
    },
    {
      "inputs": [],
      "name": "MANAGER_ROLE",
      "outputs": [
        {
          "internalType": "bytes32",
          "name": "",
          "type": "bytes32"
        }
      ],
      "stateMutability": "view",
      "type": "function"
    },
    {
      "inputs": [],
      "name": "MINTER_ROLE",
      "outputs": [
        {
          "internalType": "bytes32",
          "name": "",
          "type": "bytes32"
        }
      ],
      "stateMutability": "view",
      "type": "function"
    },
    {
      "inputs": [],
      "name": "SERVER_ROLE",
      "outputs": [
        {
          "internalType": "bytes32",
          "name": "",
          "type": "bytes32"
        }
      ],
      "stateMutability": "view",
      "type": "function"
    },
    {
      "inputs": [],
      "name": "WHITELIST_ROLE",
      "outputs": [
        {
          "internalType": "bytes32",
          "name": "",
          "type": "bytes32"
        }
      ],
      "stateMutability": "view",
      "type": "function"
    },
    {
      "inputs": [
        {
          "internalType": "address",
          "name": "to",
          "type": "address"
        },
        {
          "internalType": "uint256",
          "name": "tokenId",
          "type": "uint256"
        }
      ],
      "name": "approve",
      "outputs": [],
      "stateMutability": "payable",
      "type": "function"
    },
    {
      "inputs": [
        {
          "internalType": "address",
          "name": "owner",
          "type": "address"
        }
      ],
      "name": "balanceOf",
      "outputs": [
        {
          "internalType": "uint256",
          "name": "",
          "type": "uint256"
        }
      ],
      "stateMutability": "view",
      "type": "function"
    },
    {
      "inputs": [],
      "name": "depositBox",
      "outputs": [
        {
          "internalType": "contract IDepositBoxERC721",
          "name": "",
          "type": "address"
        }
      ],
      "stateMutability": "view",
      "type": "function"
    },
    {
      "inputs": [
        {
          "internalType": "uint256",
          "name": "tokenId",
          "type": "uint256"
        }
      ],
      "name": "getApproved",
      "outputs": [
        {
          "internalType": "address",
          "name": "",
          "type": "address"
        }
      ],
      "stateMutability": "view",
      "type": "function"
    },
    {
      "inputs": [
        {
          "internalType": "bytes32",
          "name": "role",
          "type": "bytes32"
        }
      ],
      "name": "getRoleAdmin",
      "outputs": [
        {
          "internalType": "bytes32",
          "name": "",
          "type": "bytes32"
        }
      ],
      "stateMutability": "view",
      "type": "function"
    },
    {
      "inputs": [
        {
          "internalType": "bytes32",
          "name": "role",
          "type": "bytes32"
        },
        {
          "internalType": "address",
          "name": "account",
          "type": "address"
        }
      ],
      "name": "grantRole",
      "outputs": [],
      "stateMutability": "nonpayable",
      "type": "function"
    },
    {
      "inputs": [
        {
          "internalType": "bytes32",
          "name": "role",
          "type": "bytes32"
        },
        {
          "internalType": "address",
          "name": "account",
          "type": "address"
        }
      ],
      "name": "hasRole",
      "outputs": [
        {
          "internalType": "bool",
          "name": "",
          "type": "bool"
        }
      ],
      "stateMutability": "view",
      "type": "function"
    },
    {
      "inputs": [
        {
          "internalType": "address",
          "name": "owner",
          "type": "address"
        },
        {
          "internalType": "address",
          "name": "operator",
          "type": "address"
        }
      ],
      "name": "isApprovedForAll",
      "outputs": [
        {
          "internalType": "bool",
          "name": "",
          "type": "bool"
        }
      ],
      "stateMutability": "view",
      "type": "function"
    },
    {
      "inputs": [
        {
          "internalType": "uint256",
          "name": "quantity",
          "type": "uint256"
        }
      ],
      "name": "mint",
      "outputs": [],
      "stateMutability": "nonpayable",
      "type": "function"
    },
    {
      "inputs": [],
      "name": "name",
      "outputs": [
        {
          "internalType": "string",
          "name": "",
          "type": "string"
        }
      ],
      "stateMutability": "view",
      "type": "function"
    },
    {
      "inputs": [
        {
          "internalType": "uint256",
          "name": "tokenId",
          "type": "uint256"
        }
      ],
      "name": "ownerOf",
      "outputs": [
        {
          "internalType": "address",
          "name": "",
          "type": "address"
        }
      ],
      "stateMutability": "view",
      "type": "function"
    },
    {
      "inputs": [
        {
          "internalType": "bytes32",
          "name": "role",
          "type": "bytes32"
        },
        {
          "internalType": "address",
          "name": "callerConfirmation",
          "type": "address"
        }
      ],
      "name": "renounceRole",
      "outputs": [],
      "stateMutability": "nonpayable",
      "type": "function"
    },
    {
      "inputs": [
        {
          "internalType": "bytes32",
          "name": "role",
          "type": "bytes32"
        },
        {
          "internalType": "address",
          "name": "account",
          "type": "address"
        }
      ],
      "name": "revokeRole",
      "outputs": [],
      "stateMutability": "nonpayable",
      "type": "function"
    },
    {
      "inputs": [
        {
          "internalType": "address",
          "name": "from",
          "type": "address"
        },
        {
          "internalType": "address",
          "name": "to",
          "type": "address"
        },
        {
          "internalType": "uint256",
          "name": "tokenId",
          "type": "uint256"
        }
      ],
      "name": "safeTransferFrom",
      "outputs": [],
      "stateMutability": "payable",
      "type": "function"
    },
    {
      "inputs": [
        {
          "internalType": "address",
          "name": "from",
          "type": "address"
        },
        {
          "internalType": "address",
          "name": "to",
          "type": "address"
        },
        {
          "internalType": "uint256",
          "name": "tokenId",
          "type": "uint256"
        },
        {
          "internalType": "bytes",
          "name": "_data",
          "type": "bytes"
        }
      ],
      "name": "safeTransferFrom",
      "outputs": [],
      "stateMutability": "payable",
      "type": "function"
    },
    {
      "inputs": [
        {
          "internalType": "address",
          "name": "operator",
          "type": "address"
        },
        {
          "internalType": "bool",
          "name": "approved",
          "type": "bool"
        }
      ],
      "name": "setApprovalForAll",
      "outputs": [],
      "stateMutability": "nonpayable",
      "type": "function"
    },
    {
      "inputs": [
        {
          "internalType": "bytes4",
          "name": "interfaceId",
          "type": "bytes4"
        }
      ],
      "name": "supportsInterface",
      "outputs": [
        {
          "internalType": "bool",
          "name": "",
          "type": "bool"
        }
      ],
      "stateMutability": "view",
      "type": "function"
    },
    {
      "inputs": [],
      "name": "symbol",
      "outputs": [
        {
          "internalType": "string",
          "name": "",
          "type": "string"
        }
      ],
      "stateMutability": "view",
      "type": "function"
    },
    {
      "inputs": [
        {
          "internalType": "uint256",
          "name": "tokenId",
          "type": "uint256"
        }
      ],
      "name": "tokenURI",
      "outputs": [
        {
          "internalType": "string",
          "name": "",
          "type": "string"
        }
      ],
      "stateMutability": "view",
      "type": "function"
    },
    {
      "inputs": [],
      "name": "totalSupply",
      "outputs": [
        {
          "internalType": "uint256",
          "name": "result",
          "type": "uint256"
        }
      ],
      "stateMutability": "view",
      "type": "function"
    },
    {
      "inputs": [
        {
          "internalType": "address",
          "name": "from",
          "type": "address"
        },
        {
          "internalType": "address",
          "name": "to",
          "type": "address"
        },
        {
          "internalType": "uint256",
          "name": "tokenId",
          "type": "uint256"
        }
      ],
      "name": "transferFrom",
      "outputs": [],
      "stateMutability": "payable",
      "type": "function"
    }
  ],
  "bytecode": "0x60806040523480156200001157600080fd5b50604051620031ec380380620031ec8339818101604052810190620000379190620008c5565b82826200005d6000801b62000051620002f860201b60201c565b6200030060201b60201c565b506200009f7f22435ed027edf5f902dc0093fbc24cdb50c05b5fd5f311b78c67c1cbaff60e1362000093620002f860201b60201c565b6200030060201b60201c565b50620000e17f828634d95e775031b9ff576b159a8509d3053581a8c9c4d7d86899e0afcd882f620000d5620002f860201b60201c565b6200030060201b60201c565b50620001237f241ecf16d79d0f8dbfb92cbc07fe17840425976cf0667f022fe9877caa831b0862000117620002f860201b60201c565b6200030060201b60201c565b50620001657f9f2df0fed2c77648de5860a4cc508cd0818c85b8b8a1ab4ceeef8d981c8956a662000159620002f860201b60201c565b6200030060201b60201c565b50620001a77fa8a7bc421f721cb936ea99efdad79237e6ee0b871a2a08cf648691f9584cdc776200019b620002f860201b60201c565b6200030060201b60201c565b50620001e97fdc72ed553f2544c34465af23b847953efeb813428162d767f9ba5f4013be6760620001dd620002f860201b60201c565b6200030060201b60201c565b508160039081620001fb919062000ba0565b5080600490816200020d919062000ba0565b506200021e6200040360201b60201c565b600181905550620002346200040360201b60201c565b620002446200040860201b60201c565b101562000264576200026363fed8210f60e01b6200043060201b60201c565b5b5050739f8196d864ee9476bf8dbe68ad07cc555d6b7986600a60006101000a81548173ffffffffffffffffffffffffffffffffffffffff021916908373ffffffffffffffffffffffffffffffffffffffff160217905550620002ef600a60009054906101000a900473ffffffffffffffffffffffffffffffffffffffff16826200043a60201b60201c565b50505062000c87565b600033905090565b60006200031483836200060d60201b60201c565b620003f857600160008085815260200190815260200160002060000160008473ffffffffffffffffffffffffffffffffffffffff1673ffffffffffffffffffffffffffffffffffffffff16815260200190815260200160002060006101000a81548160ff02191690831515021790555062000394620002f860201b60201c565b73ffffffffffffffffffffffffffffffffffffffff168273ffffffffffffffffffffffffffffffffffffffff16847f2f8788117e7eff1d82e926ec794901d17c78024a50270940304540a733656f0d60405160405180910390a460019050620003fd565b600090505b92915050565b600090565b60007fffffffffffffffffffffffffffffffffffffffffffffffffffffffffffffffff905090565b8060005260046000fd5b600060015490506000820362000463576200046263b562e8dd60e01b6200043060201b60201c565b5b6200047860008483856200067760201b60201c565b620004b0836200049260008660006200067d60201b60201c565b620004a385620006ad60201b60201c565b17620006bd60201b60201c565b6005600083815260200190815260200160002081905550600160406001901b178202600660008573ffffffffffffffffffffffffffffffffffffffff1673ffffffffffffffffffffffffffffffffffffffff16815260200190815260200160002060008282540192505081905550600073ffffffffffffffffffffffffffffffffffffffff8473ffffffffffffffffffffffffffffffffffffffff1616905060008103620005715762000570632e07630060e01b6200043060201b60201c565b5b6000838301905060008390506200058d6200040860201b60201c565b600183031115620005b157620005b06381647e3a60e01b6200043060201b60201c565b5b5b808360007fddf252ad1be2c89b69c2b068fc378daa952ba7f163c4a11628f55a4df523b3ef600080a4818160010191508103620005b25781600181905550505050620006086000848385620006e860201b60201c565b505050565b600080600084815260200190815260200160002060000160008373ffffffffffffffffffffffffffffffffffffffff1673ffffffffffffffffffffffffffffffffffffffff16815260200190815260200160002060009054906101000a900460ff16905092915050565b50505050565b60008060e883901c905060e86200069c868684620006ee60201b60201c565b62ffffff16901b9150509392505050565b60006001821460e11b9050919050565b600073ffffffffffffffffffffffffffffffffffffffff83169250814260a01b178317905092915050565b50505050565b60009392505050565b6000604051905090565b600080fd5b600080fd5b600080fd5b600080fd5b6000601f19601f8301169050919050565b7f4e487b7100000000000000000000000000000000000000000000000000000000600052604160045260246000fd5b620007608262000715565b810181811067ffffffffffffffff8211171562000782576200078162000726565b5b80604052505050565b600062000797620006f7565b9050620007a5828262000755565b919050565b600067ffffffffffffffff821115620007c857620007c762000726565b5b620007d38262000715565b9050602081019050919050565b60005b8381101562000800578082015181840152602081019050620007e3565b60008484015250505050565b6000620008236200081d84620007aa565b6200078b565b90508281526020810184848401111562000842576200084162000710565b5b6200084f848285620007e0565b509392505050565b600082601f8301126200086f576200086e6200070b565b5b8151620008818482602086016200080c565b91505092915050565b6000819050919050565b6200089f816200088a565b8114620008ab57600080fd5b50565b600081519050620008bf8162000894565b92915050565b600080600060608486031215620008e157620008e062000701565b5b600084015167ffffffffffffffff81111562000902576200090162000706565b5b620009108682870162000857565b935050602084015167ffffffffffffffff81111562000934576200093362000706565b5b620009428682870162000857565b92505060406200095586828701620008ae565b9150509250925092565b600081519050919050565b7f4e487b7100000000000000000000000000000000000000000000000000000000600052602260045260246000fd5b60006002820490506001821680620009b257607f821691505b602082108103620009c857620009c76200096a565b5b50919050565b60008190508160005260206000209050919050565b60006020601f8301049050919050565b600082821b905092915050565b60006008830262000a327fffffffffffffffffffffffffffffffffffffffffffffffffffffffffffffffff82620009f3565b62000a3e8683620009f3565b95508019841693508086168417925050509392505050565b6000819050919050565b600062000a8162000a7b62000a75846200088a565b62000a56565b6200088a565b9050919050565b6000819050919050565b62000a9d8362000a60565b62000ab562000aac8262000a88565b84845462000a00565b825550505050565b600090565b62000acc62000abd565b62000ad981848462000a92565b505050565b5b8181101562000b015762000af560008262000ac2565b60018101905062000adf565b5050565b601f82111562000b505762000b1a81620009ce565b62000b2584620009e3565b8101602085101562000b35578190505b62000b4d62000b4485620009e3565b83018262000ade565b50505b505050565b600082821c905092915050565b600062000b756000198460080262000b55565b1980831691505092915050565b600062000b90838362000b62565b9150826002028217905092915050565b62000bab826200095f565b67ffffffffffffffff81111562000bc75762000bc662000726565b5b62000bd3825462000999565b62000be082828562000b05565b600060209050601f83116001811462000c18576000841562000c03578287015190505b62000c0f858262000b82565b86555062000c7f565b601f19841662000c2886620009ce565b60005b8281101562000c525784890151825560018201915060208501945060208101905062000c2b565b8683101562000c72578489015162000c6e601f89168262000b62565b8355505b6001600288020188555050505b505050505050565b6125558062000c976000396000f3fe6080604052600436106101c25760003560e01c80636d611286116100f7578063a217fddf11610095578063d539139311610064578063d539139314610634578063d547741f1461065f578063e985e9c514610688578063ec87621c146106c5576101c2565b8063a217fddf14610587578063a22cb465146105b2578063b88d4fde146105db578063c87b56dd146105f7576101c2565b80638aeda25a116100d15780638aeda25a146104cb57806391d14854146104f657806395d89b4114610533578063a0712d681461055e576101c2565b80636d6112861461043857806370a08231146104635780637a997ab7146104a0576101c2565b806319afe463116101645780632f2ff15d1161013e5780632f2ff15d1461038d57806336568abe146103b657806342842e0e146103df5780636352211e146103fb576101c2565b806319afe4631461030957806323b872dd14610334578063248a9ca314610350576101c2565b8063081812fc116101a0578063081812fc1461025a578063095ea7b31461029757806318160ddd146102b357806318cf2834146102de576101c2565b806301ffc9a7146101c757806303fe46ab1461020457806306fdde031461022f575b600080fd5b3480156101d357600080fd5b506101ee60048036038101906101e99190611c66565b6106f0565b6040516101fb9190611cae565b60405180910390f35b34801561021057600080fd5b50610219610702565b6040516102269190611ce2565b60405180910390f35b34801561023b57600080fd5b50610244610726565b6040516102519190611d8d565b60405180910390f35b34801561026657600080fd5b50610281600480360381019061027c9190611de5565b6107b8565b60405161028e9190611e53565b60405180910390f35b6102b160048036038101906102ac9190611e9a565b610816565b005b3480156102bf57600080fd5b506102c8610826565b6040516102d59190611ee9565b60405180910390f35b3480156102ea57600080fd5b506102f3610873565b6040516103009190611ce2565b60405180910390f35b34801561031557600080fd5b5061031e610897565b60405161032b9190611ce2565b60405180910390f35b61034e60048036038101906103499190611f04565b6108bb565b005b34801561035c57600080fd5b5061037760048036038101906103729190611f83565b610b7c565b6040516103849190611ce2565b60405180910390f35b34801561039957600080fd5b506103b460048036038101906103af9190611fb0565b610b9b565b005b3480156103c257600080fd5b506103dd60048036038101906103d89190611fb0565b610bbd565b005b6103f960048036038101906103f49190611f04565b610c38565b005b34801561040757600080fd5b50610422600480360381019061041d9190611de5565b610c58565b60405161042f9190611e53565b60405180910390f35b34801561044457600080fd5b5061044d610c6a565b60405161045a919061204f565b60405180910390f35b34801561046f57600080fd5b5061048a6004803603810190610485919061206a565b610c90565b6040516104979190611ee9565b60405180910390f35b3480156104ac57600080fd5b506104b5610d27565b6040516104c29190611ce2565b60405180910390f35b3480156104d757600080fd5b506104e0610d4b565b6040516104ed9190611ce2565b60405180910390f35b34801561050257600080fd5b5061051d60048036038101906105189190611fb0565b610d6f565b60405161052a9190611cae565b60405180910390f35b34801561053f57600080fd5b50610548610dd9565b6040516105559190611d8d565b60405180910390f35b34801561056a57600080fd5b5061058560048036038101906105809190611de5565b610e6b565b005b34801561059357600080fd5b5061059c610ec5565b6040516105a99190611ce2565b60405180910390f35b3480156105be57600080fd5b506105d960048036038101906105d491906120c3565b610ecc565b005b6105f560048036038101906105f09190612238565b610fd7565b005b34801561060357600080fd5b5061061e60048036038101906106199190611de5565b611029565b60405161062b9190611d8d565b60405180910390f35b34801561064057600080fd5b506106496110a6565b6040516106569190611ce2565b60405180910390f35b34801561066b57600080fd5b5061068660048036038101906106819190611fb0565b6110ca565b005b34801561069457600080fd5b506106af60048036038101906106aa91906122bb565b6110ec565b6040516106bc9190611cae565b60405180910390f35b3480156106d157600080fd5b506106da611180565b6040516106e79190611ce2565b60405180910390f35b60006106fb826111a4565b9050919050565b7f364d3d7565c7a8300c96fd53e065d19b65848d7b23b3191adcd55621c744223c81565b6060600380546107359061232a565b80601f01602080910402602001604051908101604052809291908181526020018280546107619061232a565b80156107ae5780601f10610783576101008083540402835291602001916107ae565b820191906000526020600020905b81548152906001019060200180831161079157829003601f168201915b5050505050905090565b60006107c382611236565b6107d8576107d763cf4700e460e01b6112e2565b5b6007600083815260200190815260200160002060000160009054906101000a900473ffffffffffffffffffffffffffffffffffffffff169050919050565b610822828260016112ec565b5050565b600061083061141b565b600254600154030390507fffffffffffffffffffffffffffffffffffffffffffffffffffffffffffffffff610863611420565b1461087057600954810190505b90565b7fa8a7bc421f721cb936ea99efdad79237e6ee0b871a2a08cf648691f9584cdc7781565b7f22435ed027edf5f902dc0093fbc24cdb50c05b5fd5f311b78c67c1cbaff60e1381565b60006108c682611448565b905073ffffffffffffffffffffffffffffffffffffffff8473ffffffffffffffffffffffffffffffffffffffff161693508373ffffffffffffffffffffffffffffffffffffffff168173ffffffffffffffffffffffffffffffffffffffff161461093b5761093a63a114810060e01b6112e2565b5b60008061094784611561565b9150915061095d8187610958611588565b611590565b610988576109728661096d611588565b6110ec565b610987576109866359c896be60e01b6112e2565b5b5b61099586868660016115d4565b80156109a057600082555b600660008773ffffffffffffffffffffffffffffffffffffffff1673ffffffffffffffffffffffffffffffffffffffff168152602001908152602001600020600081546001900391905081905550600660008673ffffffffffffffffffffffffffffffffffffffff1673ffffffffffffffffffffffffffffffffffffffff1681526020019081526020016000206000815460010191905081905550610a6e85610a4a8888876115da565b7c020000000000000000000000000000000000000000000000000000000017611602565b600560008681526020019081526020016000208190555060007c0200000000000000000000000000000000000000000000000000000000841603610af45760006001850190506000600560008381526020019081526020016000205403610af2576001548114610af1578360056000838152602001908152602001600020819055505b5b505b600073ffffffffffffffffffffffffffffffffffffffff8673ffffffffffffffffffffffffffffffffffffffff161690508481887fddf252ad1be2c89b69c2b068fc378daa952ba7f163c4a11628f55a4df523b3ef600080a460008103610b6657610b6563ea553b3460e01b6112e2565b5b610b73878787600161162d565b50505050505050565b6000806000838152602001908152602001600020600101549050919050565b610ba482610b7c565b610bad81611633565b610bb78383611647565b50505050565b610bc5611738565b73ffffffffffffffffffffffffffffffffffffffff168173ffffffffffffffffffffffffffffffffffffffff1614610c29576040517f6697b23200000000000000000000000000000000000000000000000000000000815260040160405180910390fd5b610c338282611740565b505050565b610c5383838360405180602001604052806000815250610fd7565b505050565b6000610c6382611448565b9050919050565b600a60009054906101000a900473ffffffffffffffffffffffffffffffffffffffff1681565b60008073ffffffffffffffffffffffffffffffffffffffff168273ffffffffffffffffffffffffffffffffffffffff1603610cd657610cd5638f4eb60460e01b6112e2565b5b67ffffffffffffffff600660008473ffffffffffffffffffffffffffffffffffffffff1673ffffffffffffffffffffffffffffffffffffffff16815260200190815260200160002054169050919050565b7fdc72ed553f2544c34465af23b847953efeb813428162d767f9ba5f4013be676081565b7f828634d95e775031b9ff576b159a8509d3053581a8c9c4d7d86899e0afcd882f81565b600080600084815260200190815260200160002060000160008373ffffffffffffffffffffffffffffffffffffffff1673ffffffffffffffffffffffffffffffffffffffff16815260200190815260200160002060009054906101000a900460ff16905092915050565b606060048054610de89061232a565b80601f0160208091040260200160405190810160405280929190818152602001828054610e149061232a565b8015610e615780601f10610e3657610100808354040283529160200191610e61565b820191906000526020600020905b815481529060010190602001808311610e4457829003601f168201915b5050505050905090565b7f9f2df0fed2c77648de5860a4cc508cd0818c85b8b8a1ab4ceeef8d981c8956a6610e9581611633565b610ec1600a60009054906101000a900473ffffffffffffffffffffffffffffffffffffffff1683611832565b5050565b6000801b81565b8060086000610ed9611588565b73ffffffffffffffffffffffffffffffffffffffff1673ffffffffffffffffffffffffffffffffffffffff16815260200190815260200160002060008473ffffffffffffffffffffffffffffffffffffffff1673ffffffffffffffffffffffffffffffffffffffff16815260200190815260200160002060006101000a81548160ff0219169083151502179055508173ffffffffffffffffffffffffffffffffffffffff16610f86611588565b73ffffffffffffffffffffffffffffffffffffffff167f17307eab39ab6107e8899845ad3d59bd9653f200f220920489ca2b5937696c3183604051610fcb9190611cae565b60405180910390a35050565b610fe28484846108bb565b60008373ffffffffffffffffffffffffffffffffffffffff163b146110235761100d848484846119b9565b6110225761102163d1a57ed660e01b6112e2565b5b5b50505050565b606061103482611236565b6110495761104863a14c4b5060e01b6112e2565b5b6000611053611ae8565b90506000815103611073576040518060200160405280600081525061109e565b8061107d84611aff565b60405160200161108e929190612397565b6040516020818303038152906040525b915050919050565b7f9f2df0fed2c77648de5860a4cc508cd0818c85b8b8a1ab4ceeef8d981c8956a681565b6110d382610b7c565b6110dc81611633565b6110e68383611740565b50505050565b6000600860008473ffffffffffffffffffffffffffffffffffffffff1673ffffffffffffffffffffffffffffffffffffffff16815260200190815260200160002060008373ffffffffffffffffffffffffffffffffffffffff1673ffffffffffffffffffffffffffffffffffffffff16815260200190815260200160002060009054906101000a900460ff16905092915050565b7f241ecf16d79d0f8dbfb92cbc07fe17840425976cf0667f022fe9877caa831b0881565b60006301ffc9a760e01b827bffffffffffffffffffffffffffffffffffffffffffffffffffffffff191614806111ff57506380ac58cd60e01b827bffffffffffffffffffffffffffffffffffffffffffffffffffffffff1916145b8061122f5750635b5e139f60e01b827bffffffffffffffffffffffffffffffffffffffffffffffffffffffff1916145b9050919050565b60008161124161141b565b116112dc5761124e611420565b821115611278576112716005600084815260200190815260200160002054611b4f565b90506112dd565b6001548210156112db5760005b60006005600085815260200190815260200160002054915081036112b457826112ad906123ea565b9250611285565b60007c01000000000000000000000000000000000000000000000000000000008216149150505b5b5b919050565b8060005260046000fd5b60006112f783610c58565b905081801561133957508073ffffffffffffffffffffffffffffffffffffffff16611320611588565b73ffffffffffffffffffffffffffffffffffffffff1614155b156113655761134f8161134a611588565b6110ec565b6113645761136363cfb3b94260e01b6112e2565b5b5b836007600085815260200190815260200160002060000160006101000a81548173ffffffffffffffffffffffffffffffffffffffff021916908373ffffffffffffffffffffffffffffffffffffffff160217905550828473ffffffffffffffffffffffffffffffffffffffff168273ffffffffffffffffffffffffffffffffffffffff167f8c5be1e5ebec7d5bd14f71427d1e84f3dd0314c0f7b2291e5b200ac8c7c3b92560405160405180910390a450505050565b600090565b60007fffffffffffffffffffffffffffffffffffffffffffffffffffffffffffffffff905090565b60008161145361141b565b1161154b5760056000838152602001908152602001600020549050611476611420565b82111561149b5761148681611b4f565b61155c5761149a63df2d9b4260e01b6112e2565b5b600081036115225760015482106114bd576114bc63df2d9b4260e01b6112e2565b5b5b6005600083600190039350838152602001908152602001600020549050600081031561151d5760007c01000000000000000000000000000000000000000000000000000000008216031561155c5761151c63df2d9b4260e01b6112e2565b5b6114be565b60007c01000000000000000000000000000000000000000000000000000000008216031561155c575b61155b63df2d9b4260e01b6112e2565b5b919050565b60008060006007600085815260200190815260200160002090508092508254915050915091565b600033905090565b600073ffffffffffffffffffffffffffffffffffffffff8316925073ffffffffffffffffffffffffffffffffffffffff821691508382148383141790509392505050565b50505050565b60008060e883901c905060e86115f1868684611b90565b62ffffff16901b9150509392505050565b600073ffffffffffffffffffffffffffffffffffffffff83169250814260a01b178317905092915050565b50505050565b6116448161163f611738565b611b99565b50565b60006116538383610d6f565b61172d57600160008085815260200190815260200160002060000160008473ffffffffffffffffffffffffffffffffffffffff1673ffffffffffffffffffffffffffffffffffffffff16815260200190815260200160002060006101000a81548160ff0219169083151502179055506116ca611738565b73ffffffffffffffffffffffffffffffffffffffff168273ffffffffffffffffffffffffffffffffffffffff16847f2f8788117e7eff1d82e926ec794901d17c78024a50270940304540a733656f0d60405160405180910390a460019050611732565b600090505b92915050565b600033905090565b600061174c8383610d6f565b1561182757600080600085815260200190815260200160002060000160008473ffffffffffffffffffffffffffffffffffffffff1673ffffffffffffffffffffffffffffffffffffffff16815260200190815260200160002060006101000a81548160ff0219169083151502179055506117c4611738565b73ffffffffffffffffffffffffffffffffffffffff168273ffffffffffffffffffffffffffffffffffffffff16847ff6391f5c32d9c69d2a47ea670b442974b53935d1edc7fd64eb21e047a839171b60405160405180910390a46001905061182c565b600090505b92915050565b60006001549050600082036118525761185163b562e8dd60e01b6112e2565b5b61185f60008483856115d4565b61187f8361187060008660006115da565b61187985611bea565b17611602565b6005600083815260200190815260200160002081905550600160406001901b178202600660008573ffffffffffffffffffffffffffffffffffffffff1673ffffffffffffffffffffffffffffffffffffffff16815260200190815260200160002060008282540192505081905550600073ffffffffffffffffffffffffffffffffffffffff8473ffffffffffffffffffffffffffffffffffffffff161690506000810361193757611936632e07630060e01b6112e2565b5b60008383019050600083905061194b611420565b600183031115611966576119656381647e3a60e01b6112e2565b5b5b808360007fddf252ad1be2c89b69c2b068fc378daa952ba7f163c4a11628f55a4df523b3ef600080a481816001019150810361196757816001819055505050506119b4600084838561162d565b505050565b60008373ffffffffffffffffffffffffffffffffffffffff1663150b7a026119df611588565b8786866040518563ffffffff1660e01b8152600401611a019493929190612468565b6020604051808303816000875af1925050508015611a3d57506040513d601f19601f82011682018060405250810190611a3a91906124c9565b60015b611a95573d8060008114611a6d576040519150601f19603f3d011682016040523d82523d6000602084013e611a72565b606091505b506000815103611a8d57611a8c63d1a57ed660e01b6112e2565b5b805181602001fd5b63150b7a0260e01b7bffffffffffffffffffffffffffffffffffffffffffffffffffffffff1916817bffffffffffffffffffffffffffffffffffffffffffffffffffffffff191614915050949350505050565b606060405180602001604052806000815250905090565b606060a060405101806040526020810391506000825281835b600115611b3a57600184039350600a81066030018453600a8104905080611b18575b50828103602084039350808452505050919050565b60007c0100000000000000000000000000000000000000000000000000000000821673ffffffffffffffffffffffffffffffffffffffff8316119050919050565b60009392505050565b611ba38282610d6f565b611be65780826040517fe2517d3f000000000000000000000000000000000000000000000000000000008152600401611bdd9291906124f6565b60405180910390fd5b5050565b60006001821460e11b9050919050565b6000604051905090565b600080fd5b600080fd5b60007fffffffff0000000000000000000000000000000000000000000000000000000082169050919050565b611c4381611c0e565b8114611c4e57600080fd5b50565b600081359050611c6081611c3a565b92915050565b600060208284031215611c7c57611c7b611c04565b5b6000611c8a84828501611c51565b91505092915050565b60008115159050919050565b611ca881611c93565b82525050565b6000602082019050611cc36000830184611c9f565b92915050565b6000819050919050565b611cdc81611cc9565b82525050565b6000602082019050611cf76000830184611cd3565b92915050565b600081519050919050565b600082825260208201905092915050565b60005b83811015611d37578082015181840152602081019050611d1c565b60008484015250505050565b6000601f19601f8301169050919050565b6000611d5f82611cfd565b611d698185611d08565b9350611d79818560208601611d19565b611d8281611d43565b840191505092915050565b60006020820190508181036000830152611da78184611d54565b905092915050565b6000819050919050565b611dc281611daf565b8114611dcd57600080fd5b50565b600081359050611ddf81611db9565b92915050565b600060208284031215611dfb57611dfa611c04565b5b6000611e0984828501611dd0565b91505092915050565b600073ffffffffffffffffffffffffffffffffffffffff82169050919050565b6000611e3d82611e12565b9050919050565b611e4d81611e32565b82525050565b6000602082019050611e686000830184611e44565b92915050565b611e7781611e32565b8114611e8257600080fd5b50565b600081359050611e9481611e6e565b92915050565b60008060408385031215611eb157611eb0611c04565b5b6000611ebf85828601611e85565b9250506020611ed085828601611dd0565b9150509250929050565b611ee381611daf565b82525050565b6000602082019050611efe6000830184611eda565b92915050565b600080600060608486031215611f1d57611f1c611c04565b5b6000611f2b86828701611e85565b9350506020611f3c86828701611e85565b9250506040611f4d86828701611dd0565b9150509250925092565b611f6081611cc9565b8114611f6b57600080fd5b50565b600081359050611f7d81611f57565b92915050565b600060208284031215611f9957611f98611c04565b5b6000611fa784828501611f6e565b91505092915050565b60008060408385031215611fc757611fc6611c04565b5b6000611fd585828601611f6e565b9250506020611fe685828601611e85565b9150509250929050565b6000819050919050565b600061201561201061200b84611e12565b611ff0565b611e12565b9050919050565b600061202782611ffa565b9050919050565b60006120398261201c565b9050919050565b6120498161202e565b82525050565b60006020820190506120646000830184612040565b92915050565b6000602082840312156120805761207f611c04565b5b600061208e84828501611e85565b91505092915050565b6120a081611c93565b81146120ab57600080fd5b50565b6000813590506120bd81612097565b92915050565b600080604083850312156120da576120d9611c04565b5b60006120e885828601611e85565b92505060206120f9858286016120ae565b9150509250929050565b600080fd5b600080fd5b7f4e487b7100000000000000000000000000000000000000000000000000000000600052604160045260246000fd5b61214582611d43565b810181811067ffffffffffffffff821117156121645761216361210d565b5b80604052505050565b6000612177611bfa565b9050612183828261213c565b919050565b600067ffffffffffffffff8211156121a3576121a261210d565b5b6121ac82611d43565b9050602081019050919050565b82818337600083830152505050565b60006121db6121d684612188565b61216d565b9050828152602081018484840111156121f7576121f6612108565b5b6122028482856121b9565b509392505050565b600082601f83011261221f5761221e612103565b5b813561222f8482602086016121c8565b91505092915050565b6000806000806080858703121561225257612251611c04565b5b600061226087828801611e85565b945050602061227187828801611e85565b935050604061228287828801611dd0565b925050606085013567ffffffffffffffff8111156122a3576122a2611c09565b5b6122af8782880161220a565b91505092959194509250565b600080604083850312156122d2576122d1611c04565b5b60006122e085828601611e85565b92505060206122f185828601611e85565b9150509250929050565b7f4e487b7100000000000000000000000000000000000000000000000000000000600052602260045260246000fd5b6000600282049050600182168061234257607f821691505b602082108103612355576123546122fb565b5b50919050565b600081905092915050565b600061237182611cfd565b61237b818561235b565b935061238b818560208601611d19565b80840191505092915050565b60006123a38285612366565b91506123af8284612366565b91508190509392505050565b7f4e487b7100000000000000000000000000000000000000000000000000000000600052601160045260246000fd5b60006123f582611daf565b915060008203612408576124076123bb565b5b600182039050919050565b600081519050919050565b600082825260208201905092915050565b600061243a82612413565b612444818561241e565b9350612454818560208601611d19565b61245d81611d43565b840191505092915050565b600060808201905061247d6000830187611e44565b61248a6020830186611e44565b6124976040830185611eda565b81810360608301526124a9818461242f565b905095945050505050565b6000815190506124c381611c3a565b92915050565b6000602082840312156124df576124de611c04565b5b60006124ed848285016124b4565b91505092915050565b600060408201905061250b6000830185611e44565b6125186020830184611cd3565b939250505056fea26469706673582212201f3e86dfd8e85bffb4a868a337d830ac1be95d9eedd06fecd204550cb1850c8464736f6c63430008180033",
  "linkReferences": {},
  "deployedLinkReferences": {}
}