{
  "_format": "hh-sol-artifact-1",
  "contractName": "MainnetNFT",
  "sourceName": "contracts/MainnetNFT.sol",
  "abi": [
    {
      "inputs": [
        {
          "internalType": "string",
          "name": "name",
          "type": "string"
        },
        {
          "internalType": "string",
          "name": "symbol",
          "type": "string"
        },
        {
          "internalType": "uint256[]",
          "name": "tokenIds",
          "type": "uint256[]"
        }
      ],
      "stateMutability": "nonpayable",
      "type": "constructor"
    },
    {
      "inputs": [],
      "name": "AccessControlBadConfirmation",
      "type": "error"
    },
    {
      "inputs": [
        {
          "internalType": "address",
          "name": "account",
          "type": "address"
        },
        {
          "internalType": "bytes32",
          "name": "neededRole",
          "type": "bytes32"
        }
      ],
      "name": "AccessControlUnauthorizedAccount",
      "type": "error"
    },
    {
      "inputs": [
        {
          "internalType": "address",
          "name": "sender",
          "type": "address"
        },
        {
          "internalType": "uint256",
          "name": "tokenId",
          "type": "uint256"
        },
        {
          "internalType": "address",
          "name": "owner",
          "type": "address"
        }
      ],
      "name": "ERC721IncorrectOwner",
      "type": "error"
    },
    {
      "inputs": [
        {
          "internalType": "address",
          "name": "operator",
          "type": "address"
        },
        {
          "internalType": "uint256",
          "name": "tokenId",
          "type": "uint256"
        }
      ],
      "name": "ERC721InsufficientApproval",
      "type": "error"
    },
    {
      "inputs": [
        {
          "internalType": "address",
          "name": "approver",
          "type": "address"
        }
      ],
      "name": "ERC721InvalidApprover",
      "type": "error"
    },
    {
      "inputs": [
        {
          "internalType": "address",
          "name": "operator",
          "type": "address"
        }
      ],
      "name": "ERC721InvalidOperator",
      "type": "error"
    },
    {
      "inputs": [
        {
          "internalType": "address",
          "name": "owner",
          "type": "address"
        }
      ],
      "name": "ERC721InvalidOwner",
      "type": "error"
    },
    {
      "inputs": [
        {
          "internalType": "address",
          "name": "receiver",
          "type": "address"
        }
      ],
      "name": "ERC721InvalidReceiver",
      "type": "error"
    },
    {
      "inputs": [
        {
          "internalType": "address",
          "name": "sender",
          "type": "address"
        }
      ],
      "name": "ERC721InvalidSender",
      "type": "error"
    },
    {
      "inputs": [
        {
          "internalType": "uint256",
          "name": "tokenId",
          "type": "uint256"
        }
      ],
      "name": "ERC721NonexistentToken",
      "type": "error"
    },
    {
      "anonymous": false,
      "inputs": [
        {
          "indexed": true,
          "internalType": "address",
          "name": "owner",
          "type": "address"
        },
        {
          "indexed": true,
          "internalType": "address",
          "name": "approved",
          "type": "address"
        },
        {
          "indexed": true,
          "internalType": "uint256",
          "name": "tokenId",
          "type": "uint256"
        }
      ],
      "name": "Approval",
      "type": "event"
    },
    {
      "anonymous": false,
      "inputs": [
        {
          "indexed": true,
          "internalType": "address",
          "name": "owner",
          "type": "address"
        },
        {
          "indexed": true,
          "internalType": "address",
          "name": "operator",
          "type": "address"
        },
        {
          "indexed": false,
          "internalType": "bool",
          "name": "approved",
          "type": "bool"
        }
      ],
      "name": "ApprovalForAll",
      "type": "event"
    },
    {
      "anonymous": false,
      "inputs": [
        {
          "indexed": true,
          "internalType": "bytes32",
          "name": "role",
          "type": "bytes32"
        },
        {
          "indexed": true,
          "internalType": "bytes32",
          "name": "previousAdminRole",
          "type": "bytes32"
        },
        {
          "indexed": true,
          "internalType": "bytes32",
          "name": "newAdminRole",
          "type": "bytes32"
        }
      ],
      "name": "RoleAdminChanged",
      "type": "event"
    },
    {
      "anonymous": false,
      "inputs": [
        {
          "indexed": true,
          "internalType": "bytes32",
          "name": "role",
          "type": "bytes32"
        },
        {
          "indexed": true,
          "internalType": "address",
          "name": "account",
          "type": "address"
        },
        {
          "indexed": true,
          "internalType": "address",
          "name": "sender",
          "type": "address"
        }
      ],
      "name": "RoleGranted",
      "type": "event"
    },
    {
      "anonymous": false,
      "inputs": [
        {
          "indexed": true,
          "internalType": "bytes32",
          "name": "role",
          "type": "bytes32"
        },
        {
          "indexed": true,
          "internalType": "address",
          "name": "account",
          "type": "address"
        },
        {
          "indexed": true,
          "internalType": "address",
          "name": "sender",
          "type": "address"
        }
      ],
      "name": "RoleRevoked",
      "type": "event"
    },
    {
      "anonymous": false,
      "inputs": [
        {
          "indexed": true,
          "internalType": "address",
          "name": "from",
          "type": "address"
        },
        {
          "indexed": true,
          "internalType": "address",
          "name": "to",
          "type": "address"
        },
        {
          "indexed": true,
          "internalType": "uint256",
          "name": "tokenId",
          "type": "uint256"
        }
      ],
      "name": "Transfer",
      "type": "event"
    },
    {
      "inputs": [],
      "name": "BLACKLIST_ROLE",
      "outputs": [
        {
          "internalType": "bytes32",
          "name": "",
          "type": "bytes32"
        }
      ],
      "stateMutability": "view",
      "type": "function"
    },
    {
      "inputs": [],
      "name": "CONTRACT_ROLE",
      "outputs": [
        {
          "internalType": "bytes32",
          "name": "",
          "type": "bytes32"
        }
      ],
      "stateMutability": "view",
      "type": "function"
    },
    {
      "inputs": [],
      "name": "CREATOR_ROLE",
      "outputs": [
        {
          "internalType": "bytes32",
          "name": "",
          "type": "bytes32"
        }
      ],
      "stateMutability": "view",
      "type": "function"
    },
    {
      "inputs": [],
      "name": "DEFAULT_ADMIN_ROLE",
      "outputs": [
        {
          "internalType": "bytes32",
          "name": "",
          "type": "bytes32"
        }
      ],
      "stateMutability": "view",
      "type": "function"
    },
    {
      "inputs": [],
      "name": "MANAGER_ROLE",
      "outputs": [
        {
          "internalType": "bytes32",
          "name": "",
          "type": "bytes32"
        }
      ],
      "stateMutability": "view",
      "type": "function"
    },
    {
      "inputs": [],
      "name": "MINTER_ROLE",
      "outputs": [
        {
          "internalType": "bytes32",
          "name": "",
          "type": "bytes32"
        }
      ],
      "stateMutability": "view",
      "type": "function"
    },
    {
      "inputs": [],
      "name": "SERVER_ROLE",
      "outputs": [
        {
          "internalType": "bytes32",
          "name": "",
          "type": "bytes32"
        }
      ],
      "stateMutability": "view",
      "type": "function"
    },
    {
      "inputs": [],
      "name": "WHITELIST_ROLE",
      "outputs": [
        {
          "internalType": "bytes32",
          "name": "",
          "type": "bytes32"
        }
      ],
      "stateMutability": "view",
      "type": "function"
    },
    {
      "inputs": [
        {
          "internalType": "address",
          "name": "to",
          "type": "address"
        },
        {
          "internalType": "uint256",
          "name": "tokenId",
          "type": "uint256"
        }
      ],
      "name": "approve",
      "outputs": [],
      "stateMutability": "nonpayable",
      "type": "function"
    },
    {
      "inputs": [
        {
          "internalType": "address",
          "name": "owner",
          "type": "address"
        }
      ],
      "name": "balanceOf",
      "outputs": [
        {
          "internalType": "uint256",
          "name": "",
          "type": "uint256"
        }
      ],
      "stateMutability": "view",
      "type": "function"
    },
    {
      "inputs": [],
      "name": "depositBox",
      "outputs": [
        {
          "internalType": "contract IDepositBoxERC721",
          "name": "",
          "type": "address"
        }
      ],
      "stateMutability": "view",
      "type": "function"
    },
    {
      "inputs": [
        {
          "internalType": "uint256",
          "name": "tokenId",
          "type": "uint256"
        }
      ],
      "name": "getApproved",
      "outputs": [
        {
          "internalType": "address",
          "name": "",
          "type": "address"
        }
      ],
      "stateMutability": "view",
      "type": "function"
    },
    {
      "inputs": [
        {
          "internalType": "bytes32",
          "name": "role",
          "type": "bytes32"
        }
      ],
      "name": "getRoleAdmin",
      "outputs": [
        {
          "internalType": "bytes32",
          "name": "",
          "type": "bytes32"
        }
      ],
      "stateMutability": "view",
      "type": "function"
    },
    {
      "inputs": [
        {
          "internalType": "bytes32",
          "name": "role",
          "type": "bytes32"
        },
        {
          "internalType": "address",
          "name": "account",
          "type": "address"
        }
      ],
      "name": "grantRole",
      "outputs": [],
      "stateMutability": "nonpayable",
      "type": "function"
    },
    {
      "inputs": [
        {
          "internalType": "bytes32",
          "name": "role",
          "type": "bytes32"
        },
        {
          "internalType": "address",
          "name": "account",
          "type": "address"
        }
      ],
      "name": "hasRole",
      "outputs": [
        {
          "internalType": "bool",
          "name": "",
          "type": "bool"
        }
      ],
      "stateMutability": "view",
      "type": "function"
    },
    {
      "inputs": [
        {
          "internalType": "address",
          "name": "owner",
          "type": "address"
        },
        {
          "internalType": "address",
          "name": "operator",
          "type": "address"
        }
      ],
      "name": "isApprovedForAll",
      "outputs": [
        {
          "internalType": "bool",
          "name": "",
          "type": "bool"
        }
      ],
      "stateMutability": "view",
      "type": "function"
    },
    {
      "inputs": [
        {
          "internalType": "uint256[]",
          "name": "tokenIds",
          "type": "uint256[]"
        }
      ],
      "name": "mint",
      "outputs": [],
      "stateMutability": "nonpayable",
      "type": "function"
    },
    {
      "inputs": [],
      "name": "name",
      "outputs": [
        {
          "internalType": "string",
          "name": "",
          "type": "string"
        }
      ],
      "stateMutability": "view",
      "type": "function"
    },
    {
      "inputs": [
        {
          "internalType": "uint256",
          "name": "tokenId",
          "type": "uint256"
        }
      ],
      "name": "ownerOf",
      "outputs": [
        {
          "internalType": "address",
          "name": "",
          "type": "address"
        }
      ],
      "stateMutability": "view",
      "type": "function"
    },
    {
      "inputs": [
        {
          "internalType": "bytes32",
          "name": "role",
          "type": "bytes32"
        },
        {
          "internalType": "address",
          "name": "callerConfirmation",
          "type": "address"
        }
      ],
      "name": "renounceRole",
      "outputs": [],
      "stateMutability": "nonpayable",
      "type": "function"
    },
    {
      "inputs": [
        {
          "internalType": "bytes32",
          "name": "role",
          "type": "bytes32"
        },
        {
          "internalType": "address",
          "name": "account",
          "type": "address"
        }
      ],
      "name": "revokeRole",
      "outputs": [],
      "stateMutability": "nonpayable",
      "type": "function"
    },
    {
      "inputs": [
        {
          "internalType": "address",
          "name": "from",
          "type": "address"
        },
        {
          "internalType": "address",
          "name": "to",
          "type": "address"
        },
        {
          "internalType": "uint256",
          "name": "tokenId",
          "type": "uint256"
        }
      ],
      "name": "safeTransferFrom",
      "outputs": [],
      "stateMutability": "nonpayable",
      "type": "function"
    },
    {
      "inputs": [
        {
          "internalType": "address",
          "name": "from",
          "type": "address"
        },
        {
          "internalType": "address",
          "name": "to",
          "type": "address"
        },
        {
          "internalType": "uint256",
          "name": "tokenId",
          "type": "uint256"
        },
        {
          "internalType": "bytes",
          "name": "data",
          "type": "bytes"
        }
      ],
      "name": "safeTransferFrom",
      "outputs": [],
      "stateMutability": "nonpayable",
      "type": "function"
    },
    {
      "inputs": [
        {
          "internalType": "address",
          "name": "operator",
          "type": "address"
        },
        {
          "internalType": "bool",
          "name": "approved",
          "type": "bool"
        }
      ],
      "name": "setApprovalForAll",
      "outputs": [],
      "stateMutability": "nonpayable",
      "type": "function"
    },
    {
      "inputs": [
        {
          "internalType": "bytes4",
          "name": "interfaceId",
          "type": "bytes4"
        }
      ],
      "name": "supportsInterface",
      "outputs": [
        {
          "internalType": "bool",
          "name": "",
          "type": "bool"
        }
      ],
      "stateMutability": "view",
      "type": "function"
    },
    {
      "inputs": [],
      "name": "symbol",
      "outputs": [
        {
          "internalType": "string",
          "name": "",
          "type": "string"
        }
      ],
      "stateMutability": "view",
      "type": "function"
    },
    {
      "inputs": [
        {
          "internalType": "uint256",
          "name": "tokenId",
          "type": "uint256"
        }
      ],
      "name": "tokenURI",
      "outputs": [
        {
          "internalType": "string",
          "name": "",
          "type": "string"
        }
      ],
      "stateMutability": "view",
      "type": "function"
    },
    {
      "inputs": [
        {
          "internalType": "address",
          "name": "from",
          "type": "address"
        },
        {
          "internalType": "address",
          "name": "to",
          "type": "address"
        },
        {
          "internalType": "uint256",
          "name": "tokenId",
          "type": "uint256"
        }
      ],
      "name": "transferFrom",
      "outputs": [],
      "stateMutability": "nonpayable",
      "type": "function"
    }
  ],
  "bytecode": "0x60806040523480156200001157600080fd5b50604051620040bb380380620040bb83398181016040528101906200003791906200118d565b82826200005d6000801b620000516200027f60201b60201c565b6200028760201b60201c565b506200009f7f22435ed027edf5f902dc0093fbc24cdb50c05b5fd5f311b78c67c1cbaff60e13620000936200027f60201b60201c565b6200028760201b60201c565b50620000e17f828634d95e775031b9ff576b159a8509d3053581a8c9c4d7d86899e0afcd882f620000d56200027f60201b60201c565b6200028760201b60201c565b50620001237f241ecf16d79d0f8dbfb92cbc07fe17840425976cf0667f022fe9877caa831b08620001176200027f60201b60201c565b6200028760201b60201c565b50620001657f9f2df0fed2c77648de5860a4cc508cd0818c85b8b8a1ab4ceeef8d981c8956a6620001596200027f60201b60201c565b6200028760201b60201c565b50620001a77fa8a7bc421f721cb936ea99efdad79237e6ee0b871a2a08cf648691f9584cdc776200019b6200027f60201b60201c565b6200028760201b60201c565b50620001e97fdc72ed553f2544c34465af23b847953efeb813428162d767f9ba5f4013be6760620001dd6200027f60201b60201c565b6200028760201b60201c565b508160019081620001fb919062001487565b5080600290816200020d919062001487565b505050739f8196d864ee9476bf8dbe68ad07cc555d6b7986600760006101000a81548173ffffffffffffffffffffffffffffffffffffffff021916908373ffffffffffffffffffffffffffffffffffffffff16021790555062000276816200038a60201b60201c565b5050506200179a565b600033905090565b60006200029b8383620003fa60201b60201c565b6200037f57600160008085815260200190815260200160002060000160008473ffffffffffffffffffffffffffffffffffffffff1673ffffffffffffffffffffffffffffffffffffffff16815260200190815260200160002060006101000a81548160ff0219169083151502179055506200031b6200027f60201b60201c565b73ffffffffffffffffffffffffffffffffffffffff168273ffffffffffffffffffffffffffffffffffffffff16847f2f8788117e7eff1d82e926ec794901d17c78024a50270940304540a733656f0d60405160405180910390a46001905062000384565b600090505b92915050565b60005b8151811015620003f657620003e8600760009054906101000a900473ffffffffffffffffffffffffffffffffffffffff16838381518110620003d457620003d36200156e565b5b60200260200101516200046460201b60201c565b80806001019150506200038d565b5050565b600080600084815260200190815260200160002060000160008373ffffffffffffffffffffffffffffffffffffffff1673ffffffffffffffffffffffffffffffffffffffff16815260200190815260200160002060009054906101000a900460ff16905092915050565b620004868282604051806020016040528060008152506200048a60201b60201c565b5050565b6200049c8383620004b660201b60201c565b620004b16000848484620005bd60201b60201c565b505050565b600073ffffffffffffffffffffffffffffffffffffffff168273ffffffffffffffffffffffffffffffffffffffff16036200052b5760006040517f64a0ae92000000000000000000000000000000000000000000000000000000008152600401620005229190620015e2565b60405180910390fd5b600062000541838360006200078b60201b60201c565b9050600073ffffffffffffffffffffffffffffffffffffffff168173ffffffffffffffffffffffffffffffffffffffff1614620005b85760006040517f73c6ac6e000000000000000000000000000000000000000000000000000000008152600401620005af9190620015e2565b60405180910390fd5b505050565b60008373ffffffffffffffffffffffffffffffffffffffff163b111562000785578273ffffffffffffffffffffffffffffffffffffffff1663150b7a026200060a6200027f60201b60201c565b8685856040518563ffffffff1660e01b81526004016200062e94939291906200166d565b6020604051808303816000875af19250505080156200066d57506040513d601f19601f820116820180604052508101906200066a91906200171e565b60015b620006f7573d8060008114620006a0576040519150601f19603f3d011682016040523d82523d6000602084013e620006a5565b606091505b506000815103620006ef57836040517f64a0ae92000000000000000000000000000000000000000000000000000000008152600401620006e69190620015e2565b60405180910390fd5b805181602001fd5b63150b7a0260e01b7bffffffffffffffffffffffffffffffffffffffffffffffffffffffff1916817bffffffffffffffffffffffffffffffffffffffffffffffffffffffff1916146200078357836040517f64a0ae920000000000000000000000000000000000000000000000000000000081526004016200077a9190620015e2565b60405180910390fd5b505b50505050565b6000806200079f84620009c060201b60201c565b9050600073ffffffffffffffffffffffffffffffffffffffff168373ffffffffffffffffffffffffffffffffffffffff1614620007ea57620007e9818486620009fd60201b60201c565b5b600073ffffffffffffffffffffffffffffffffffffffff168173ffffffffffffffffffffffffffffffffffffffff161462000884576200083560008560008062000acf60201b60201c565b6001600460008373ffffffffffffffffffffffffffffffffffffffff1673ffffffffffffffffffffffffffffffffffffffff168152602001908152602001600020600082825403925050819055505b600073ffffffffffffffffffffffffffffffffffffffff168573ffffffffffffffffffffffffffffffffffffffff161462000908576001600460008773ffffffffffffffffffffffffffffffffffffffff1673ffffffffffffffffffffffffffffffffffffffff168152602001908152602001600020600082825401925050819055505b846003600086815260200190815260200160002060006101000a81548173ffffffffffffffffffffffffffffffffffffffff021916908373ffffffffffffffffffffffffffffffffffffffff160217905550838573ffffffffffffffffffffffffffffffffffffffff168273ffffffffffffffffffffffffffffffffffffffff167fddf252ad1be2c89b69c2b068fc378daa952ba7f163c4a11628f55a4df523b3ef60405160405180910390a4809150509392505050565b60006003600083815260200190815260200160002060009054906101000a900473ffffffffffffffffffffffffffffffffffffffff169050919050565b62000a1083838362000cac60201b60201c565b62000aca57600073ffffffffffffffffffffffffffffffffffffffff168373ffffffffffffffffffffffffffffffffffffffff160362000a8957806040517f7e27328900000000000000000000000000000000000000000000000000000000815260040162000a80919062001750565b60405180910390fd5b81816040517f177e802f00000000000000000000000000000000000000000000000000000000815260040162000ac19291906200176d565b60405180910390fd5b505050565b808062000b095750600073ffffffffffffffffffffffffffffffffffffffff168273ffffffffffffffffffffffffffffffffffffffff1614155b1562000c5457600062000b228462000d8060201b60201c565b9050600073ffffffffffffffffffffffffffffffffffffffff168373ffffffffffffffffffffffffffffffffffffffff161415801562000b8e57508273ffffffffffffffffffffffffffffffffffffffff168173ffffffffffffffffffffffffffffffffffffffff1614155b801562000baa575062000ba8818462000e1360201b60201c565b155b1562000bef57826040517fa9fbf51f00000000000000000000000000000000000000000000000000000000815260040162000be69190620015e2565b60405180910390fd5b811562000c5257838573ffffffffffffffffffffffffffffffffffffffff168273ffffffffffffffffffffffffffffffffffffffff167f8c5be1e5ebec7d5bd14f71427d1e84f3dd0314c0f7b2291e5b200ac8c7c3b92560405160405180910390a45b505b836005600085815260200190815260200160002060006101000a81548173ffffffffffffffffffffffffffffffffffffffff021916908373ffffffffffffffffffffffffffffffffffffffff16021790555050505050565b60008073ffffffffffffffffffffffffffffffffffffffff168373ffffffffffffffffffffffffffffffffffffffff161415801562000d7757508273ffffffffffffffffffffffffffffffffffffffff168473ffffffffffffffffffffffffffffffffffffffff16148062000d2f575062000d2e848462000e1360201b60201c565b5b8062000d7657508273ffffffffffffffffffffffffffffffffffffffff1662000d5e8362000ea760201b60201c565b73ffffffffffffffffffffffffffffffffffffffff16145b5b90509392505050565b60008062000d9483620009c060201b60201c565b9050600073ffffffffffffffffffffffffffffffffffffffff168173ffffffffffffffffffffffffffffffffffffffff160362000e0a57826040517f7e27328900000000000000000000000000000000000000000000000000000000815260040162000e01919062001750565b60405180910390fd5b80915050919050565b6000600660008473ffffffffffffffffffffffffffffffffffffffff1673ffffffffffffffffffffffffffffffffffffffff16815260200190815260200160002060008373ffffffffffffffffffffffffffffffffffffffff1673ffffffffffffffffffffffffffffffffffffffff16815260200190815260200160002060009054906101000a900460ff16905092915050565b60006005600083815260200190815260200160002060009054906101000a900473ffffffffffffffffffffffffffffffffffffffff169050919050565b6000604051905090565b600080fd5b600080fd5b600080fd5b600080fd5b6000601f19601f8301169050919050565b7f4e487b7100000000000000000000000000000000000000000000000000000000600052604160045260246000fd5b62000f4d8262000f02565b810181811067ffffffffffffffff8211171562000f6f5762000f6e62000f13565b5b80604052505050565b600062000f8462000ee4565b905062000f92828262000f42565b919050565b600067ffffffffffffffff82111562000fb55762000fb462000f13565b5b62000fc08262000f02565b9050602081019050919050565b60005b8381101562000fed57808201518184015260208101905062000fd0565b60008484015250505050565b6000620010106200100a8462000f97565b62000f78565b9050828152602081018484840111156200102f576200102e62000efd565b5b6200103c84828562000fcd565b509392505050565b600082601f8301126200105c576200105b62000ef8565b5b81516200106e84826020860162000ff9565b91505092915050565b600067ffffffffffffffff82111562001095576200109462000f13565b5b602082029050602081019050919050565b600080fd5b6000819050919050565b620010c081620010ab565b8114620010cc57600080fd5b50565b600081519050620010e081620010b5565b92915050565b6000620010fd620010f78462001077565b62000f78565b90508083825260208201905060208402830185811115620011235762001122620010a6565b5b835b818110156200115057806200113b8882620010cf565b84526020840193505060208101905062001125565b5050509392505050565b600082601f83011262001172576200117162000ef8565b5b815162001184848260208601620010e6565b91505092915050565b600080600060608486031215620011a957620011a862000eee565b5b600084015167ffffffffffffffff811115620011ca57620011c962000ef3565b5b620011d88682870162001044565b935050602084015167ffffffffffffffff811115620011fc57620011fb62000ef3565b5b6200120a8682870162001044565b925050604084015167ffffffffffffffff8111156200122e576200122d62000ef3565b5b6200123c868287016200115a565b9150509250925092565b600081519050919050565b7f4e487b7100000000000000000000000000000000000000000000000000000000600052602260045260246000fd5b600060028204905060018216806200129957607f821691505b602082108103620012af57620012ae62001251565b5b50919050565b60008190508160005260206000209050919050565b60006020601f8301049050919050565b600082821b905092915050565b600060088302620013197fffffffffffffffffffffffffffffffffffffffffffffffffffffffffffffffff82620012da565b620013258683620012da565b95508019841693508086168417925050509392505050565b6000819050919050565b600062001368620013626200135c84620010ab565b6200133d565b620010ab565b9050919050565b6000819050919050565b620013848362001347565b6200139c62001393826200136f565b848454620012e7565b825550505050565b600090565b620013b3620013a4565b620013c081848462001379565b505050565b5b81811015620013e857620013dc600082620013a9565b600181019050620013c6565b5050565b601f82111562001437576200140181620012b5565b6200140c84620012ca565b810160208510156200141c578190505b620014346200142b85620012ca565b830182620013c5565b50505b505050565b600082821c905092915050565b60006200145c600019846008026200143c565b1980831691505092915050565b600062001477838362001449565b9150826002028217905092915050565b620014928262001246565b67ffffffffffffffff811115620014ae57620014ad62000f13565b5b620014ba825462001280565b620014c7828285620013ec565b600060209050601f831160018114620014ff5760008415620014ea578287015190505b620014f6858262001469565b86555062001566565b601f1984166200150f86620012b5565b60005b82811015620015395784890151825560018201915060208501945060208101905062001512565b8683101562001559578489015162001555601f89168262001449565b8355505b6001600288020188555050505b505050505050565b7f4e487b7100000000000000000000000000000000000000000000000000000000600052603260045260246000fd5b600073ffffffffffffffffffffffffffffffffffffffff82169050919050565b6000620015ca826200159d565b9050919050565b620015dc81620015bd565b82525050565b6000602082019050620015f96000830184620015d1565b92915050565b6200160a81620010ab565b82525050565b600081519050919050565b600082825260208201905092915050565b6000620016398262001610565b6200164581856200161b565b93506200165781856020860162000fcd565b620016628162000f02565b840191505092915050565b6000608082019050620016846000830187620015d1565b620016936020830186620015d1565b620016a26040830185620015ff565b8181036060830152620016b681846200162c565b905095945050505050565b60007fffffffff0000000000000000000000000000000000000000000000000000000082169050919050565b620016f881620016c1565b81146200170457600080fd5b50565b6000815190506200171881620016ed565b92915050565b60006020828403121562001737576200173662000eee565b5b6000620017478482850162001707565b91505092915050565b6000602082019050620017676000830184620015ff565b92915050565b6000604082019050620017846000830185620015d1565b620017936020830184620015ff565b9392505050565b61291180620017aa6000396000f3fe608060405234801561001057600080fd5b50600436106101c45760003560e01c806370a08231116100f9578063b88d4fde11610097578063d547741f11610071578063d547741f14610509578063e985e9c514610525578063ec87621c14610555578063f8e93ef914610573576101c4565b8063b88d4fde1461049f578063c87b56dd146104bb578063d5391393146104eb576101c4565b806391d14854116100d357806391d148541461041757806395d89b4114610447578063a217fddf14610465578063a22cb46514610483576101c4565b806370a08231146103ab5780637a997ab7146103db5780638aeda25a146103f9576101c4565b806323b872dd1161016657806336568abe1161014057806336568abe1461032557806342842e0e146103415780636352211e1461035d5780636d6112861461038d576101c4565b806323b872dd146102bd578063248a9ca3146102d95780632f2ff15d14610309576101c4565b8063081812fc116101a2578063081812fc14610235578063095ea7b31461026557806318cf28341461028157806319afe4631461029f576101c4565b806301ffc9a7146101c957806303fe46ab146101f957806306fdde0314610217575b600080fd5b6101e360048036038101906101de9190611eab565b61058f565b6040516101f09190611ef3565b60405180910390f35b6102016105a1565b60405161020e9190611f27565b60405180910390f35b61021f6105c5565b60405161022c9190611fd2565b60405180910390f35b61024f600480360381019061024a919061202a565b610657565b60405161025c9190612098565b60405180910390f35b61027f600480360381019061027a91906120df565b610673565b005b610289610689565b6040516102969190611f27565b60405180910390f35b6102a76106ad565b6040516102b49190611f27565b60405180910390f35b6102d760048036038101906102d2919061211f565b6106d1565b005b6102f360048036038101906102ee919061219e565b6107d3565b6040516103009190611f27565b60405180910390f35b610323600480360381019061031e91906121cb565b6107f2565b005b61033f600480360381019061033a91906121cb565b610814565b005b61035b6004803603810190610356919061211f565b61088f565b005b6103776004803603810190610372919061202a565b6108af565b6040516103849190612098565b60405180910390f35b6103956108c1565b6040516103a2919061226a565b60405180910390f35b6103c560048036038101906103c09190612285565b6108e7565b6040516103d291906122c1565b60405180910390f35b6103e36109a1565b6040516103f09190611f27565b60405180910390f35b6104016109c5565b60405161040e9190611f27565b60405180910390f35b610431600480360381019061042c91906121cb565b6109e9565b60405161043e9190611ef3565b60405180910390f35b61044f610a53565b60405161045c9190611fd2565b60405180910390f35b61046d610ae5565b60405161047a9190611f27565b60405180910390f35b61049d60048036038101906104989190612308565b610aec565b005b6104b960048036038101906104b4919061247d565b610b02565b005b6104d560048036038101906104d0919061202a565b610b1f565b6040516104e29190611fd2565b60405180910390f35b6104f3610b88565b6040516105009190611f27565b60405180910390f35b610523600480360381019061051e91906121cb565b610bac565b005b61053f600480360381019061053a9190612500565b610bce565b60405161054c9190611ef3565b60405180910390f35b61055d610c62565b60405161056a9190611f27565b60405180910390f35b61058d60048036038101906105889190612608565b610c86565b005b600061059a82610cbd565b9050919050565b7f364d3d7565c7a8300c96fd53e065d19b65848d7b23b3191adcd55621c744223c81565b6060600180546105d490612680565b80601f016020809104026020016040519081016040528092919081815260200182805461060090612680565b801561064d5780601f106106225761010080835404028352916020019161064d565b820191906000526020600020905b81548152906001019060200180831161063057829003601f168201915b5050505050905090565b600061066282610d9f565b5061066c82610e27565b9050919050565b6106858282610680610e64565b610e6c565b5050565b7fa8a7bc421f721cb936ea99efdad79237e6ee0b871a2a08cf648691f9584cdc7781565b7f22435ed027edf5f902dc0093fbc24cdb50c05b5fd5f311b78c67c1cbaff60e1381565b600073ffffffffffffffffffffffffffffffffffffffff168273ffffffffffffffffffffffffffffffffffffffff16036107435760006040517f64a0ae9200000000000000000000000000000000000000000000000000000000815260040161073a9190612098565b60405180910390fd5b60006107578383610752610e64565b610e7e565b90508373ffffffffffffffffffffffffffffffffffffffff168173ffffffffffffffffffffffffffffffffffffffff16146107cd578382826040517f64283d7b0000000000000000000000000000000000000000000000000000000081526004016107c4939291906126b1565b60405180910390fd5b50505050565b6000806000838152602001908152602001600020600101549050919050565b6107fb826107d3565b61080481611098565b61080e83836110ac565b50505050565b61081c610e64565b73ffffffffffffffffffffffffffffffffffffffff168173ffffffffffffffffffffffffffffffffffffffff1614610880576040517f6697b23200000000000000000000000000000000000000000000000000000000815260040160405180910390fd5b61088a828261119d565b505050565b6108aa83838360405180602001604052806000815250610b02565b505050565b60006108ba82610d9f565b9050919050565b600760009054906101000a900473ffffffffffffffffffffffffffffffffffffffff1681565b60008073ffffffffffffffffffffffffffffffffffffffff168273ffffffffffffffffffffffffffffffffffffffff160361095a5760006040517f89c62b640000000000000000000000000000000000000000000000000000000081526004016109519190612098565b60405180910390fd5b600460008373ffffffffffffffffffffffffffffffffffffffff1673ffffffffffffffffffffffffffffffffffffffff168152602001908152602001600020549050919050565b7fdc72ed553f2544c34465af23b847953efeb813428162d767f9ba5f4013be676081565b7f828634d95e775031b9ff576b159a8509d3053581a8c9c4d7d86899e0afcd882f81565b600080600084815260200190815260200160002060000160008373ffffffffffffffffffffffffffffffffffffffff1673ffffffffffffffffffffffffffffffffffffffff16815260200190815260200160002060009054906101000a900460ff16905092915050565b606060028054610a6290612680565b80601f0160208091040260200160405190810160405280929190818152602001828054610a8e90612680565b8015610adb5780601f10610ab057610100808354040283529160200191610adb565b820191906000526020600020905b815481529060010190602001808311610abe57829003601f168201915b5050505050905090565b6000801b81565b610afe610af7610e64565b838361128f565b5050565b610b0d8484846106d1565b610b19848484846113fe565b50505050565b6060610b2a82610d9f565b506000610b356115b5565b90506000815111610b555760405180602001604052806000815250610b80565b80610b5f846115cc565b604051602001610b70929190612724565b6040516020818303038152906040525b915050919050565b7f9f2df0fed2c77648de5860a4cc508cd0818c85b8b8a1ab4ceeef8d981c8956a681565b610bb5826107d3565b610bbe81611098565b610bc8838361119d565b50505050565b6000600660008473ffffffffffffffffffffffffffffffffffffffff1673ffffffffffffffffffffffffffffffffffffffff16815260200190815260200160002060008373ffffffffffffffffffffffffffffffffffffffff1673ffffffffffffffffffffffffffffffffffffffff16815260200190815260200160002060009054906101000a900460ff16905092915050565b7f241ecf16d79d0f8dbfb92cbc07fe17840425976cf0667f022fe9877caa831b0881565b7f9f2df0fed2c77648de5860a4cc508cd0818c85b8b8a1ab4ceeef8d981c8956a6610cb081611098565b610cb98261169a565b5050565b60007f80ac58cd000000000000000000000000000000000000000000000000000000007bffffffffffffffffffffffffffffffffffffffffffffffffffffffff1916827bffffffffffffffffffffffffffffffffffffffffffffffffffffffff19161480610d8857507f5b5e139f000000000000000000000000000000000000000000000000000000007bffffffffffffffffffffffffffffffffffffffffffffffffffffffff1916827bffffffffffffffffffffffffffffffffffffffffffffffffffffffff1916145b80610d985750610d97826116fd565b5b9050919050565b600080610dab83611777565b9050600073ffffffffffffffffffffffffffffffffffffffff168173ffffffffffffffffffffffffffffffffffffffff1603610e1e57826040517f7e273289000000000000000000000000000000000000000000000000000000008152600401610e1591906122c1565b60405180910390fd5b80915050919050565b60006005600083815260200190815260200160002060009054906101000a900473ffffffffffffffffffffffffffffffffffffffff169050919050565b600033905090565b610e7983838360016117b4565b505050565b600080610e8a84611777565b9050600073ffffffffffffffffffffffffffffffffffffffff168373ffffffffffffffffffffffffffffffffffffffff1614610ecc57610ecb818486611979565b5b600073ffffffffffffffffffffffffffffffffffffffff168173ffffffffffffffffffffffffffffffffffffffff1614610f5d57610f0e6000856000806117b4565b6001600460008373ffffffffffffffffffffffffffffffffffffffff1673ffffffffffffffffffffffffffffffffffffffff168152602001908152602001600020600082825403925050819055505b600073ffffffffffffffffffffffffffffffffffffffff168573ffffffffffffffffffffffffffffffffffffffff1614610fe0576001600460008773ffffffffffffffffffffffffffffffffffffffff1673ffffffffffffffffffffffffffffffffffffffff168152602001908152602001600020600082825401925050819055505b846003600086815260200190815260200160002060006101000a81548173ffffffffffffffffffffffffffffffffffffffff021916908373ffffffffffffffffffffffffffffffffffffffff160217905550838573ffffffffffffffffffffffffffffffffffffffff168273ffffffffffffffffffffffffffffffffffffffff167fddf252ad1be2c89b69c2b068fc378daa952ba7f163c4a11628f55a4df523b3ef60405160405180910390a4809150509392505050565b6110a9816110a4610e64565b611a3d565b50565b60006110b883836109e9565b61119257600160008085815260200190815260200160002060000160008473ffffffffffffffffffffffffffffffffffffffff1673ffffffffffffffffffffffffffffffffffffffff16815260200190815260200160002060006101000a81548160ff02191690831515021790555061112f610e64565b73ffffffffffffffffffffffffffffffffffffffff168273ffffffffffffffffffffffffffffffffffffffff16847f2f8788117e7eff1d82e926ec794901d17c78024a50270940304540a733656f0d60405160405180910390a460019050611197565b600090505b92915050565b60006111a983836109e9565b1561128457600080600085815260200190815260200160002060000160008473ffffffffffffffffffffffffffffffffffffffff1673ffffffffffffffffffffffffffffffffffffffff16815260200190815260200160002060006101000a81548160ff021916908315150217905550611221610e64565b73ffffffffffffffffffffffffffffffffffffffff168273ffffffffffffffffffffffffffffffffffffffff16847ff6391f5c32d9c69d2a47ea670b442974b53935d1edc7fd64eb21e047a839171b60405160405180910390a460019050611289565b600090505b92915050565b600073ffffffffffffffffffffffffffffffffffffffff168273ffffffffffffffffffffffffffffffffffffffff160361130057816040517f5b08ba180000000000000000000000000000000000000000000000000000000081526004016112f79190612098565b60405180910390fd5b80600660008573ffffffffffffffffffffffffffffffffffffffff1673ffffffffffffffffffffffffffffffffffffffff16815260200190815260200160002060008473ffffffffffffffffffffffffffffffffffffffff1673ffffffffffffffffffffffffffffffffffffffff16815260200190815260200160002060006101000a81548160ff0219169083151502179055508173ffffffffffffffffffffffffffffffffffffffff168373ffffffffffffffffffffffffffffffffffffffff167f17307eab39ab6107e8899845ad3d59bd9653f200f220920489ca2b5937696c31836040516113f19190611ef3565b60405180910390a3505050565b60008373ffffffffffffffffffffffffffffffffffffffff163b11156115af578273ffffffffffffffffffffffffffffffffffffffff1663150b7a02611442610e64565b8685856040518563ffffffff1660e01b8152600401611464949392919061279d565b6020604051808303816000875af19250505080156114a057506040513d601f19601f8201168201806040525081019061149d91906127fe565b60015b611524573d80600081146114d0576040519150601f19603f3d011682016040523d82523d6000602084013e6114d5565b606091505b50600081510361151c57836040517f64a0ae920000000000000000000000000000000000000000000000000000000081526004016115139190612098565b60405180910390fd5b805181602001fd5b63150b7a0260e01b7bffffffffffffffffffffffffffffffffffffffffffffffffffffffff1916817bffffffffffffffffffffffffffffffffffffffffffffffffffffffff1916146115ad57836040517f64a0ae920000000000000000000000000000000000000000000000000000000081526004016115a49190612098565b60405180910390fd5b505b50505050565b606060405180602001604052806000815250905090565b6060600060016115db84611a8e565b01905060008167ffffffffffffffff8111156115fa576115f9612352565b5b6040519080825280601f01601f19166020018201604052801561162c5781602001600182028036833780820191505090505b509050600082602001820190505b60011561168f578080600190039150507f3031323334353637383961626364656600000000000000000000000000000000600a86061a8153600a85816116835761168261282b565b5b0494506000850361163a575b819350505050919050565b60005b81518110156116f9576116ec600760009054906101000a900473ffffffffffffffffffffffffffffffffffffffff168383815181106116df576116de61285a565b5b6020026020010151611be1565b808060010191505061169d565b5050565b60007f7965db0b000000000000000000000000000000000000000000000000000000007bffffffffffffffffffffffffffffffffffffffffffffffffffffffff1916827bffffffffffffffffffffffffffffffffffffffffffffffffffffffff19161480611770575061176f82611bff565b5b9050919050565b60006003600083815260200190815260200160002060009054906101000a900473ffffffffffffffffffffffffffffffffffffffff169050919050565b80806117ed5750600073ffffffffffffffffffffffffffffffffffffffff168273ffffffffffffffffffffffffffffffffffffffff1614155b156119215760006117fd84610d9f565b9050600073ffffffffffffffffffffffffffffffffffffffff168373ffffffffffffffffffffffffffffffffffffffff161415801561186857508273ffffffffffffffffffffffffffffffffffffffff168173ffffffffffffffffffffffffffffffffffffffff1614155b801561187b57506118798184610bce565b155b156118bd57826040517fa9fbf51f0000000000000000000000000000000000000000000000000000000081526004016118b49190612098565b60405180910390fd5b811561191f57838573ffffffffffffffffffffffffffffffffffffffff168273ffffffffffffffffffffffffffffffffffffffff167f8c5be1e5ebec7d5bd14f71427d1e84f3dd0314c0f7b2291e5b200ac8c7c3b92560405160405180910390a45b505b836005600085815260200190815260200160002060006101000a81548173ffffffffffffffffffffffffffffffffffffffff021916908373ffffffffffffffffffffffffffffffffffffffff16021790555050505050565b611984838383611c69565b611a3857600073ffffffffffffffffffffffffffffffffffffffff168373ffffffffffffffffffffffffffffffffffffffff16036119f957806040517f7e2732890000000000000000000000000000000000000000000000000000000081526004016119f091906122c1565b60405180910390fd5b81816040517f177e802f000000000000000000000000000000000000000000000000000000008152600401611a2f929190612889565b60405180910390fd5b505050565b611a4782826109e9565b611a8a5780826040517fe2517d3f000000000000000000000000000000000000000000000000000000008152600401611a819291906128b2565b60405180910390fd5b5050565b600080600090507a184f03e93ff9f4daa797ed6e38ed64bf6a1f0100000000000000008310611aec577a184f03e93ff9f4daa797ed6e38ed64bf6a1f0100000000000000008381611ae257611ae161282b565b5b0492506040810190505b6d04ee2d6d415b85acef81000000008310611b29576d04ee2d6d415b85acef81000000008381611b1f57611b1e61282b565b5b0492506020810190505b662386f26fc100008310611b5857662386f26fc100008381611b4e57611b4d61282b565b5b0492506010810190505b6305f5e1008310611b81576305f5e1008381611b7757611b7661282b565b5b0492506008810190505b6127108310611ba6576127108381611b9c57611b9b61282b565b5b0492506004810190505b60648310611bc95760648381611bbf57611bbe61282b565b5b0492506002810190505b600a8310611bd8576001810190505b80915050919050565b611bfb828260405180602001604052806000815250611d2a565b5050565b60007f01ffc9a7000000000000000000000000000000000000000000000000000000007bffffffffffffffffffffffffffffffffffffffffffffffffffffffff1916827bffffffffffffffffffffffffffffffffffffffffffffffffffffffff1916149050919050565b60008073ffffffffffffffffffffffffffffffffffffffff168373ffffffffffffffffffffffffffffffffffffffff1614158015611d2157508273ffffffffffffffffffffffffffffffffffffffff168473ffffffffffffffffffffffffffffffffffffffff161480611ce25750611ce18484610bce565b5b80611d2057508273ffffffffffffffffffffffffffffffffffffffff16611d0883610e27565b73ffffffffffffffffffffffffffffffffffffffff16145b5b90509392505050565b611d348383611d46565b611d4160008484846113fe565b505050565b600073ffffffffffffffffffffffffffffffffffffffff168273ffffffffffffffffffffffffffffffffffffffff1603611db85760006040517f64a0ae92000000000000000000000000000000000000000000000000000000008152600401611daf9190612098565b60405180910390fd5b6000611dc683836000610e7e565b9050600073ffffffffffffffffffffffffffffffffffffffff168173ffffffffffffffffffffffffffffffffffffffff1614611e3a5760006040517f73c6ac6e000000000000000000000000000000000000000000000000000000008152600401611e319190612098565b60405180910390fd5b505050565b6000604051905090565b600080fd5b600080fd5b60007fffffffff0000000000000000000000000000000000000000000000000000000082169050919050565b611e8881611e53565b8114611e9357600080fd5b50565b600081359050611ea581611e7f565b92915050565b600060208284031215611ec157611ec0611e49565b5b6000611ecf84828501611e96565b91505092915050565b60008115159050919050565b611eed81611ed8565b82525050565b6000602082019050611f086000830184611ee4565b92915050565b6000819050919050565b611f2181611f0e565b82525050565b6000602082019050611f3c6000830184611f18565b92915050565b600081519050919050565b600082825260208201905092915050565b60005b83811015611f7c578082015181840152602081019050611f61565b60008484015250505050565b6000601f19601f8301169050919050565b6000611fa482611f42565b611fae8185611f4d565b9350611fbe818560208601611f5e565b611fc781611f88565b840191505092915050565b60006020820190508181036000830152611fec8184611f99565b905092915050565b6000819050919050565b61200781611ff4565b811461201257600080fd5b50565b60008135905061202481611ffe565b92915050565b6000602082840312156120405761203f611e49565b5b600061204e84828501612015565b91505092915050565b600073ffffffffffffffffffffffffffffffffffffffff82169050919050565b600061208282612057565b9050919050565b61209281612077565b82525050565b60006020820190506120ad6000830184612089565b92915050565b6120bc81612077565b81146120c757600080fd5b50565b6000813590506120d9816120b3565b92915050565b600080604083850312156120f6576120f5611e49565b5b6000612104858286016120ca565b925050602061211585828601612015565b9150509250929050565b60008060006060848603121561213857612137611e49565b5b6000612146868287016120ca565b9350506020612157868287016120ca565b925050604061216886828701612015565b9150509250925092565b61217b81611f0e565b811461218657600080fd5b50565b60008135905061219881612172565b92915050565b6000602082840312156121b4576121b3611e49565b5b60006121c284828501612189565b91505092915050565b600080604083850312156121e2576121e1611e49565b5b60006121f085828601612189565b9250506020612201858286016120ca565b9150509250929050565b6000819050919050565b600061223061222b61222684612057565b61220b565b612057565b9050919050565b600061224282612215565b9050919050565b600061225482612237565b9050919050565b61226481612249565b82525050565b600060208201905061227f600083018461225b565b92915050565b60006020828403121561229b5761229a611e49565b5b60006122a9848285016120ca565b91505092915050565b6122bb81611ff4565b82525050565b60006020820190506122d660008301846122b2565b92915050565b6122e581611ed8565b81146122f057600080fd5b50565b600081359050612302816122dc565b92915050565b6000806040838503121561231f5761231e611e49565b5b600061232d858286016120ca565b925050602061233e858286016122f3565b9150509250929050565b600080fd5b600080fd5b7f4e487b7100000000000000000000000000000000000000000000000000000000600052604160045260246000fd5b61238a82611f88565b810181811067ffffffffffffffff821117156123a9576123a8612352565b5b80604052505050565b60006123bc611e3f565b90506123c88282612381565b919050565b600067ffffffffffffffff8211156123e8576123e7612352565b5b6123f182611f88565b9050602081019050919050565b82818337600083830152505050565b600061242061241b846123cd565b6123b2565b90508281526020810184848401111561243c5761243b61234d565b5b6124478482856123fe565b509392505050565b600082601f83011261246457612463612348565b5b813561247484826020860161240d565b91505092915050565b6000806000806080858703121561249757612496611e49565b5b60006124a5878288016120ca565b94505060206124b6878288016120ca565b93505060406124c787828801612015565b925050606085013567ffffffffffffffff8111156124e8576124e7611e4e565b5b6124f48782880161244f565b91505092959194509250565b6000806040838503121561251757612516611e49565b5b6000612525858286016120ca565b9250506020612536858286016120ca565b9150509250929050565b600067ffffffffffffffff82111561255b5761255a612352565b5b602082029050602081019050919050565b600080fd5b600061258461257f84612540565b6123b2565b905080838252602082019050602084028301858111156125a7576125a661256c565b5b835b818110156125d057806125bc8882612015565b8452602084019350506020810190506125a9565b5050509392505050565b600082601f8301126125ef576125ee612348565b5b81356125ff848260208601612571565b91505092915050565b60006020828403121561261e5761261d611e49565b5b600082013567ffffffffffffffff81111561263c5761263b611e4e565b5b612648848285016125da565b91505092915050565b7f4e487b7100000000000000000000000000000000000000000000000000000000600052602260045260246000fd5b6000600282049050600182168061269857607f821691505b6020821081036126ab576126aa612651565b5b50919050565b60006060820190506126c66000830186612089565b6126d360208301856122b2565b6126e06040830184612089565b949350505050565b600081905092915050565b60006126fe82611f42565b61270881856126e8565b9350612718818560208601611f5e565b80840191505092915050565b600061273082856126f3565b915061273c82846126f3565b91508190509392505050565b600081519050919050565b600082825260208201905092915050565b600061276f82612748565b6127798185612753565b9350612789818560208601611f5e565b61279281611f88565b840191505092915050565b60006080820190506127b26000830187612089565b6127bf6020830186612089565b6127cc60408301856122b2565b81810360608301526127de8184612764565b905095945050505050565b6000815190506127f881611e7f565b92915050565b60006020828403121561281457612813611e49565b5b6000612822848285016127e9565b91505092915050565b7f4e487b7100000000000000000000000000000000000000000000000000000000600052601260045260246000fd5b7f4e487b7100000000000000000000000000000000000000000000000000000000600052603260045260246000fd5b600060408201905061289e6000830185612089565b6128ab60208301846122b2565b9392505050565b60006040820190506128c76000830185612089565b6128d46020830184611f18565b939250505056fea2646970667358221220f595126181587e9aa599bfb1d185276cd8e622b56ab06a4e6efd0da1ee652fb764736f6c63430008180033",
  "linkReferences": {},
  "deployedLinkReferences": {}
}